{
  "_format": "hh-sol-artifact-1",
  "contractName": "Lottery",
  "sourceName": "src/contracts/Lottery.sol",
  "abi": [
    {
      "inputs": [
        {
          "internalType": "address",
          "name": "managerAddress",
          "type": "address"
        },
        {
          "internalType": "address",
          "name": "flAddress",
          "type": "address"
        }
      ],
      "stateMutability": "nonpayable",
      "type": "constructor"
    },
    {
      "inputs": [],
      "name": "enter",
      "outputs": [],
      "stateMutability": "payable",
      "type": "function"
    },
    {
      "inputs": [],
      "name": "fl",
      "outputs": [
        {
          "internalType": "contract IERC20",
          "name": "",
          "type": "address"
        }
      ],
      "stateMutability": "view",
      "type": "function"
    },
    {
      "inputs": [],
      "name": "getBalance",
      "outputs": [
        {
          "internalType": "uint256",
          "name": "",
          "type": "uint256"
        }
      ],
      "stateMutability": "view",
      "type": "function"
    },
    {
      "inputs": [],
      "name": "getPlayers",
      "outputs": [
        {
          "internalType": "address payable[]",
          "name": "",
          "type": "address[]"
        }
      ],
      "stateMutability": "view",
      "type": "function"
    },
    {
      "inputs": [],
      "name": "lastDrawTimestamp",
      "outputs": [
        {
          "internalType": "uint256",
          "name": "",
          "type": "uint256"
        }
      ],
      "stateMutability": "view",
      "type": "function"
    },
    {
      "inputs": [],
      "name": "manager",
      "outputs": [
        {
          "internalType": "address",
          "name": "",
          "type": "address"
        }
      ],
      "stateMutability": "view",
      "type": "function"
    },
    {
      "inputs": [],
      "name": "pickWinner",
      "outputs": [],
      "stateMutability": "nonpayable",
      "type": "function"
    },
    {
      "inputs": [
        {
          "internalType": "uint256",
          "name": "",
          "type": "uint256"
        }
      ],
      "name": "players",
      "outputs": [
        {
          "internalType": "address payable",
          "name": "",
          "type": "address"
        }
      ],
      "stateMutability": "view",
      "type": "function"
    }
  ],
  "bytecode": "0x608060405234801561001057600080fd5b50604051610df2380380610df28339818101604052604081101561003357600080fd5b810190808051906020019092919080519060200190929190505050816000806101000a81548173ffffffffffffffffffffffffffffffffffffffff021916908373ffffffffffffffffffffffffffffffffffffffff16021790555080600260006101000a81548173ffffffffffffffffffffffffffffffffffffffff021916908373ffffffffffffffffffffffffffffffffffffffff1602179055505050610d12806100e06000396000f3fe60806040526004361061007b5760003560e01c80638b5b9ccc1161004e5780638b5b9ccc146101445780638c21460b146101b0578063e97dcb62146101db578063f71d96cb146101e55761007b565b806312065fe014610080578063481c6a75146100ab5780635d495aea146100ec5780637b77a5cf14610103575b600080fd5b34801561008c57600080fd5b5061009561024a565b6040518082815260200191505060405180910390f35b3480156100b757600080fd5b506100c0610315565b604051808273ffffffffffffffffffffffffffffffffffffffff16815260200191505060405180910390f35b3480156100f857600080fd5b50610101610339565b005b34801561010f57600080fd5b5061011861070e565b604051808273ffffffffffffffffffffffffffffffffffffffff16815260200191505060405180910390f35b34801561015057600080fd5b50610159610734565b6040518080602001828103825283818151815260200191508051906020019060200280838360005b8381101561019c578082015181840152602081019050610181565b505050509050019250505060405180910390f35b3480156101bc57600080fd5b506101c56107c2565b6040518082815260200191505060405180910390f35b6101e36107c8565b005b3480156101f157600080fd5b5061021e6004803603602081101561020857600080fd5b810190808035906020019092919050505061099e565b604051808273ffffffffffffffffffffffffffffffffffffffff16815260200191505060405180910390f35b6000600260009054906101000a900473ffffffffffffffffffffffffffffffffffffffff1673ffffffffffffffffffffffffffffffffffffffff166370a08231306040518263ffffffff1660e01b8152600401808273ffffffffffffffffffffffffffffffffffffffff16815260200191505060206040518083038186803b1580156102d557600080fd5b505afa1580156102e9573d6000803e3d6000fd5b505050506040513d60208110156102ff57600080fd5b8101908080519060200190929190505050905090565b60008054906101000a900473ffffffffffffffffffffffffffffffffffffffff1681565b60008054906101000a900473ffffffffffffffffffffffffffffffffffffffff1673ffffffffffffffffffffffffffffffffffffffff163373ffffffffffffffffffffffffffffffffffffffff161461039157600080fd5b6000600260009054906101000a900473ffffffffffffffffffffffffffffffffffffffff1673ffffffffffffffffffffffffffffffffffffffff166370a08231306040518263ffffffff1660e01b8152600401808273ffffffffffffffffffffffffffffffffffffffff16815260200191505060206040518083038186803b15801561041c57600080fd5b505afa158015610430573d6000803e3d6000fd5b505050506040513d602081101561044657600080fd5b81019080805190602001909291905050509050600061047a60018054905061046c6109da565b610a7c90919063ffffffff16565b905060006104a56014610497601386610b0590919063ffffffff16565b610b8b90919063ffffffff16565b905060008184039050600260009054906101000a900473ffffffffffffffffffffffffffffffffffffffff1673ffffffffffffffffffffffffffffffffffffffff1663a9059cbb600185815481106104f957fe5b9060005260206000200160009054906101000a900473ffffffffffffffffffffffffffffffffffffffff16846040518363ffffffff1660e01b8152600401808373ffffffffffffffffffffffffffffffffffffffff16815260200182815260200192505050602060405180830381600087803b15801561057857600080fd5b505af115801561058c573d6000803e3d6000fd5b505050506040513d60208110156105a257600080fd5b810190808051906020019092919050505050600260009054906101000a900473ffffffffffffffffffffffffffffffffffffffff1673ffffffffffffffffffffffffffffffffffffffff1663a9059cbb60008054906101000a900473ffffffffffffffffffffffffffffffffffffffff16836040518363ffffffff1660e01b8152600401808373ffffffffffffffffffffffffffffffffffffffff16815260200182815260200192505050602060405180830381600087803b15801561066757600080fd5b505af115801561067b573d6000803e3d6000fd5b505050506040513d602081101561069157600080fd5b810190808051906020019092919050505050600067ffffffffffffffff811180156106bb57600080fd5b506040519080825280602002602001820160405280156106ea5781602001602082028036833780820191505090505b5060019080519060200190610700929190610c14565b504260038190555050505050565b600260009054906101000a900473ffffffffffffffffffffffffffffffffffffffff1681565b606060018054806020026020016040519081016040528092919081815260200182805480156107b857602002820191906000526020600020905b8160009054906101000a900473ffffffffffffffffffffffffffffffffffffffff1673ffffffffffffffffffffffffffffffffffffffff168152602001906001019080831161076e575b5050505050905090565b60035481565b61012c600354420311610843576040517f08c379a00000000000000000000000000000000000000000000000000000000081526004018080602001828103825260188152602001807f43616e6e6f7420656e74657220746865206c6f7474657279000000000000000081525060200191505060405180910390fd5b600260009054906101000a900473ffffffffffffffffffffffffffffffffffffffff1673ffffffffffffffffffffffffffffffffffffffff166323b872dd33306801158e460913d000006040518463ffffffff1660e01b8152600401808473ffffffffffffffffffffffffffffffffffffffff1681526020018373ffffffffffffffffffffffffffffffffffffffff1681526020018281526020019350505050602060405180830381600087803b1580156108fd57600080fd5b505af1158015610911573d6000803e3d6000fd5b505050506040513d602081101561092757600080fd5b8101908080519060200190929190505050506001339080600181540180825580915050600190039060005260206000200160009091909190916101000a81548173ffffffffffffffffffffffffffffffffffffffff021916908373ffffffffffffffffffffffffffffffffffffffff160217905550565b600181815481106109ab57fe5b906000526020600020016000915054906101000a900473ffffffffffffffffffffffffffffffffffffffff1681565b600044426001604051602001808481526020018381526020018280548015610a5757602002820191906000526020600020905b8160009054906101000a900473ffffffffffffffffffffffffffffffffffffffff1673ffffffffffffffffffffffffffffffffffffffff1681526020019060010190808311610a0d575b505093505050506040516020818303038152906040528051906020012060001c905090565b6000808211610af3576040517f08c379a00000000000000000000000000000000000000000000000000000000081526004018080602001828103825260188152602001807f536166654d6174683a206d6f64756c6f206279207a65726f000000000000000081525060200191505060405180910390fd5b818381610afc57fe5b06905092915050565b600080831415610b185760009050610b85565b6000828402905082848281610b2957fe5b0414610b80576040517f08c379a0000000000000000000000000000000000000000000000000000000008152600401808060200182810382526021815260200180610cbc6021913960400191505060405180910390fd5b809150505b92915050565b6000808211610c02576040517f08c379a000000000000000000000000000000000000000000000000000000000815260040180806020018281038252601a8152602001807f536166654d6174683a206469766973696f6e206279207a65726f00000000000081525060200191505060405180910390fd5b818381610c0b57fe5b04905092915050565b828054828255906000526020600020908101928215610c8d579160200282015b82811115610c8c5782518260006101000a81548173ffffffffffffffffffffffffffffffffffffffff021916908373ffffffffffffffffffffffffffffffffffffffff16021790555091602001919060010190610c34565b5b509050610c9a9190610c9e565b5090565b5b80821115610cb7576000816000905550600101610c9f565b509056fe536166654d6174683a206d756c7469706c69636174696f6e206f766572666c6f77a2646970667358221220ee8f27813abf87236001d392e56133888fd7d343df0946de88dcc4cab1c0ed5364736f6c63430007030033",
  "linkReferences": {},
  "deployedLinkReferences": {}
}